:020000020000FC
:100000000C9406000C941C000C943A0058E05EBF5F
:100010005FEF5DBF0E9402010E94810000EC0E9420
:100020005B0000E30E946F000E946F000E94F900D5
:10003000E0E3F0E30C941A00F89401E00E945B0006
:100040000E942B010E94810000EC0E945B00E033C3
:1000500021F4F03331F40C943200F03311F4FAE36C
:10006000EA95FA950E2F0E946F000F2F0E946F00E5
:1000700078941895F89401E00E945B000E942B018F
:100080000E94810000EC0E945B00E13321F4F63312
:1000900031F40C945700F93311F4FFE2E395F39532
:1000A0000E2F0E946F000F2F0E946F0018950E9464
:1000B000B20078941895B02FB295B5B94098419890
:1000C000429A0E94200142980E942301B02FB5B9A4
:1000D000429A0E94200142980E9423010895B02F65
:1000E000B295B5B9409A4198429A0E94200142982F
:1000F000B02FB5B9429A0E94200142980E94230174
:10010000089503E20E946F0006E50E946F0005E477
:100110000E946F0008E40E946F0009E40E946F00D3
:1001200003E40E946F000CE40E946F0005E40E944B
:100130006F0003E50E946F0000E20E946F0009E477
:100140000E946F000EE40E946F0003E50E946F00A2
:1001500009E40E946F0004E40E946F0005E40E941D
:100160006F00089501E00E945B000E942B0106E4ED
:100170000E946F0005E50E946F000CE40E946F0072
:100180000CE40E946F0000E20E946F000AE30E94EC
:100190006F0008E20E946F0000EC0E945B000E946A
:1001A0002B0107E40E946F000FE40E946F0004E43B
:1001B0000E946F0001E40E946F0000E20E946F0045
:1001C00006E20E946F0000E20E946F0005E40E94B8
:1001D0006F000CE40E946F0008E40E946F0004E4CA
:1001E0000E946F0001E40E946F0004E40E946F000F
:1001F0000895E0E0E0936900E3E0EDBB78945A9A5B
:100200005B9A08955FEF54B957B903E30E945B000E
:100210000E942B0102E30E945B000E942B0108E276
:100220000E945B000E942B010EE00E945B0001E037
:100230000E945B000E942B0106E00E945B00089573
:100240000000000008951F931CE30E9420011A95EE
:10025000E1F71F9108951F9314E10E9423011A955D
:10026000E1F71F91089572E56FEF5FEF5A95F1F78F
:0A0270006A95D9F77A95C1F7089551
:00000001FF
